:10098F00C0F9A4B0999282F8809001020408102057
:02099F00408096
:1009A1000808FFFFFFFFFFFFFFFF0110000111001B
:0A09B200EF1F70011E144E70F722B3
:0A09BC001208008F1012096F80F678
:10096F007590FFD2A0C2A0E51190099993F590D28E
:10097F00A1C2A1E51090098F93F590D2A0C2A02239
:1008000075B00FADB0E5B0640F70030208E07F0A69
:100810007E001209B2E5B0640F70030208E075B003
:100820007FED647F602CAFB0EF2485601024FE6004
:100830001114601324077012E4F512800D75120173
:1008400080087512028003751203E5B0B47FFB7552
:10085000B0FF75B0BFE5B064BF602CAFB0EF24450A
:10086000601024FE601114601324077012751204C6
:10087000800D75120580087512068003751207E554
:10088000B0B4BFFB75B0FF75B0DFE5B064DF601BCF
:10089000AFB0EF24256009240470087512088003A6
:1008A000751209E5B0B4DFFB75B0FF75B0EFE5B0C8
:1008B00064EF602CAFB0EF2415601024FE601114BB
:1008C000601324077012E4F512800D751201800880
:1008D0007512028003751203E5B0B4EFFB75B0FF2B
:0208E000AF1255
:0108E20022F3
:030000000208E310
:0C08E300787FE4F6D8FD75811202092A26
:1008EF000209BCE493A3F8E493A34003F68001F25A
:1008FF0008DFF48029E493A3F85407240CC8C3330A
:10090F00C4540F4420C8834004F456800146F6DFD8
:10091F00E4800B01020408102040809009A1E47EBE
:10092F00019360BCA3FF543F30E509541FFEE493CD
:10093F00A360010ECF54C025E060A840B8E493A394
:10094F00FAE493A3F8E493A3C8C582C8CAC583CABF
:10095F00F0A3C8C582C8CAC583CADFE9DEE780BE77
:0109B1000045
:00000001FF
