:0300FC00DFFE2202
:0F00A3001200CE7F051200B27F6C1200DA7F05CB
:1000B200AE07AF061EEF600C7FF51200FC7FF51253
:0500C20000FC80EE22AD
:0700C7007F191200B27F381F
:0C00CE00C2A4C2A3D2A28F9000C2A22242
:0C00DA00D2A4C2A3D2A28F9000C2A22226
:0A00F2007F011200CE7F050200B26C
:10007B007F381200CE1200C71200C77F191200B2D0
:10008B007F081200CE7F011200CE7F061200CE1F1A
:08009B001200B27F0F0200CE3B
:10000300E4F590C2A0C2A1C2B57590FF12007B12A5
:1000130000F27F871200CE7F051200B27F4F1200DD
:10002300AD7F881200CE7F051200B27F6B1200AD48
:100033007FC11200CE7F051200B27F481200AD7F50
:10004300C21200CE7F051200B27F651200AD7FC3DE
:100053001200A37FC41200A37FC51200CE7F051236
:1000630000B27F6F1200AD7FC61200CE7F05120073
:08007300B27F211200AD80FEF6
:030000000200E615
:0C00E600787FE4F6D8FD75810702000366
:00000001FF
