:03098100DFFE2274
:0808FA00C2A3D2A28F907F017E
:10090200AE07AF061EEF600C7FF51209817FF5126C
:05091200098180EE22C6
:08097900C2A41208FAC2A22276
:0509560012095B7F04A3
:08095B00D2A41208FAC2A22284
:0A096F007F011209797F05020902D9
:100942007F381209797FC81209027F0F1209797F55
:04095200C8020902CC
:1008B1008F0F8E0E8D0D8C0C7F40120979E4FF1283
:1008C100095BE4FF12095BE4FF12095B7F4812092F
:1008D100797F041209567F1F1209567F0612095BA0
:1008E1007F0C120956AF0F120979E4FF12095BAFB1
:0908F1000F1209797F0102095B75
:10080000E4750B80F50AF509F508E47F8FFEFDFC21
:10081000AB0BAA0AA909A808C3120917700302089A
:10082000A4AF0BAE0AAD09AC081208B1E50B04FF8A
:100830001209797F4112095BE50B2402FF12097945
:100840007F4D12095BE50B2403FF1209797FA51286
:10085000095BE50B2404FF1209797F4812095BE567
:100860000B2405FF1209797FAD12095BE50B240605
:10087000FFE4350AFEE43509FDE43508FC1208B151
:100880007FE812090212096FE4FAF9F8E50B240176
:10089000F50BEA350AF50AE93509F509E83508F5F1
:1008A0000802080AE4750B80F50AF509F508020844
:0108B0000A3D
:10092D00E4F590C2A0C2A1C2B57590FF12094212A2
:05093D00096F02080033
:030000000209638F
:0C096300787FE4F6D8FD75810F02092DA5
:10091700EB9FF5F0EA9E42F0E99D42F0EC6480C857
:0609270064809845F022F7
:00000001FF
