:1003DD00C0F9A4B0999282F880900102040810200F
:0203ED0040804E
:0D03FD000814FFFFFFFFFFFFFFFF011300CB
:0403EF007F0A7E0003
:0A03F300EF1F70011E144E70F72278
:10014000E4F5087509FFF50AF50BF50CF50DF50E4C
:10015000F50FF51012040BE50814602C1460371429
:100160006059240360030201F212000E8F09E509B1
:10017000C3940A500B750B008F0CAF0CAE0B802B89
:1001800085090A75080180CFE50A24F3600304702D
:100190005B75080280C112000E8F09E509C3940A3D
:1001A000500E750D008F0EAF0EAE0D12030F80A70F
:1001B000E509640B70A1750803809CE50A24F360CF
:1001C0001104701BE50C250EF510E50B350DF50F30
:1001D000800DC3E50C950EF510E50B950DF50FAFF1
:1001E00010AE0F12030F850F0B85100CE4F50802FB
:0801F0000157E4F50802015774
:03000300DFFE22FB
:1003C800AE07AF061EEF600C7FF51200037FF51233
:0503D800000380EE228D
:10039D007590FFD2A0C2A0E5132F9003E793F590BF
:1003AD00D2A1C2A174142513F8E6F590D2A0C2A073
:0A03BD000513E513B50503E4F5137D
:0103C7002213
:04030F008E118F12AA
:10031300C3E5116480948050107514BFC3E4951233
:10032300F512E49511F51180037514FF7A07E512B0
:1003330045117009EA640760047BFF8027AE11AFA3
:10034300127C007D0A12028474DD2DF58274033C55
:10035300F583E493FBAE11AF127C007D0A12028495
:0C0363008E118F1274142AF8A603DAC25F
:01036F00226B
:0A040B00438901D2AFD2A9D28C229E
:03000B000203707D
:10037000C0E0C083C082C0D075D000C000C005C03E
:1003800007758CF8758A307D08E4FF12039DD0074D
:0D039000D005D000D0D0D082D083D0E03294
:10000E007511FF75B0F0E5B064F0700302013D7F2D
:10001E000A1203C8E5B064F0700302013D75B0FE2C
:10002E00E5B064FE603B1203EFE5B064FE6032AFF4
:10003E00B0EF2442601124E0601224F060132470AB
:10004E007014E4F5118012751104800D751108807D
:10005E000875110C80037511FFE5B0B4FEFB0201AB
:10006E003775B0FDE5B064FD603B1203EFE5B0649B
:10007E00FD6032AFB0EF2443601124E0601224F033
:10008E006013247070147511018012751105800DA6
:10009E00751109800875110D80037511FFE5B0B457
:1000AE00FDFB02013775B0FBE5B064FB603A12034D
:1000BE00EFE5B064FB6031AFB0EF2445601124E092
:1000CE00601224F060132470701475110280127582
:1000DE001106800D75110A800875110E80037FFFC1
:1000EE0022E5B0B4FBFB804175B0F7E5B064F76074
:1000FE003E1203EFE5B064F76035AFB0EF24496010
:10010E001124E0601224F060132470701475110332
:10011E008012751107800D75110B800875110F80F7
:10012E00037FFF22E5B0B4F7FB75B0FFAF1122AF2E
:01013E0011AF
:01013F00229D
:030000000201F802
:0C01F800787FE4F6D8FD75811B02023F01
:10028400C2D5EC30E709B2D5E4C39DFDE49CFCEE95
:1002940030E715B2D5E4C39FFFE49EFE1202BAC351
:1002A400E49DFDE49CFC80031202BA30D507C3E44C
:0602B4009FFFE49EFE2204
:10020400020140E493A3F8E493A34003F68001F2CF
:1002140008DFF48029E493A3F85407240CC8C333FB
:10022400C4540F4420C8834004F456800146F6DFCA
:10023400E4800B01020408102040809003FDE47E5A
:10024400019360BCA3FF543F30E509541FFEE493BF
:10025400A360010ECF54C025E060A840B8E493A386
:10026400FAE493A3F8E493A3C8C582C8CAC583CAB1
:10027400F0A3C8C582C8CAC583CADFE9DEE780BE69
:01040A0000F1
:1002BA00BC000BBE0029EF8DF084FFADF022E4CC28
:1002CA00F875F008EF2FFFEE33FEEC33FCEE9DECF1
:1002DA00984005FCEE9DFE0FD5F0E9E4CEFD22ED37
:1002EA00F8F5F0EE8420D21CFEADF075F008EF2F81
:1002FA00FFED33FD4007985006D5F0F222C398FD72
:05030A000FD5F0EA220E
:00000001FF
