:10087A00C0F9A4B0999282F880900102040810206D
:02088A004080AC
:10084400D2A0747A250BF5827408350AF583E493F3
:10085400F590C2A0D2A174842509F58274083508E4
:0C086400F583E493F590C2A17FA87E61AB
:0A087000EF1F70011E144E70F722F6
:10080000E4F508F509F50A750B01E50B6408450ADE
:100810006015120844050BE50B7002050A0509E591
:100820000970E7050880E3E50B6401450A60D11211
:100830000844E50B150B7002150AE509150970E768
:04084000150880E334
:0300000002088C67
:0C088C00787FE4F6D8FD75810B020800AF
:00000001FF
