:030000000208D320
:0C08D300787FE4F6D8FD7581070208006C
:0308F500DFFE2201
:0F0878001208C77F051208877F6C1208DF7F0503
:10088700AE07AF061EEF600C7FF51208F57FF51275
:0508970008F580EE22CF
:0C08BB007F381208C77F191208877F38A9
:0C08C700C2A4C2A3D2A28F9000C2A22241
:0C08DF00D2A4C2A3D2A28F9000C2A22219
:0A08EB007F011208C77F050208878D
:10089C001208BB7F191208871208BB7F0A1208C7FF
:0F08AC007F381208C77F051208877F0C0208C724
:10080000E4F590C2A0C2A1C2B57590FF12089C1277
:1008100008EB7F871208C77F051208877F4F1208F1
:10082000827F881208C77F051208877F6B120882B3
:100830007FC11208C77F051208877F481208827F90
:10084000C21208C77F051208877F651208827FC31E
:100850001208787FC41208787FC51208C77F051276
:1008600008877F6F1208827FC61208C77F051208AB
:08087000877F2112088280FE3F
:00000001FF
