:020000040800F2
:10000000784000209D010008CF100008E30D000893
:10001000CD100008E5010008F512000800000000FE
:10002000000000000000000000000000F5110008C2
:10003000E701000800000000F110000809120008A4
:10004000B7010008B7010008B7010008B7010008B0
:10005000B7010008B7010008B7010008B7010008A0
:10006000B7010008B7010008B7010008B701000890
:10007000B7010008B7010008B7010008B701000880
:10008000B7010008B7010008B7010008B701000870
:10009000B7010008B7010008B7010008B701000860
:1000A000B7010008B7010008B7010008B701000850
:1000B000B7010008B7010008B7010008B701000840
:1000C000B7010008B7010008B7010008F5100008E3
:1000D000B7010008B7010008B7010008B701000820
:1000E000B7010008B7010008B7010008B701000810
:1000F000B7010008B7010008B7010008B701000800
:10010000B7010008B7010008B7010008B7010008EF
:10011000B7010008B7010008B7010008B7010008DF
:10012000B7010008B7010008B7010008B7010008CF
:10013000B7010008B7010008B7010008B7010008BF
:10014000B7010008B7010008B7010008B7010008AF
:10015000B7010008B7010008B7010008B70100089F
:10016000B7010008B7010008B7010008B70100088F
:10017000B7010008B7010008B7010008000000003F
:10018000B7010008B7010008DFF80CD000F018F83C
:1001900000480047151300087840002006488047B3
:1001A00006480047FEE7FEE7FEE7FEE7FEE7FEE75C
:1001B000FEE7FEE7FEE7FEE7A1120008890100085E
:1001C000064C074D06E0E06840F0010394E80700A4
:1001D00098471034AC42F6D3FFF7DAFF70130008EB
:1001E00090130008FEE7704790F83510022903D0FD
:1001F0008021416501207047052180F83510006895
:10020000016821F0010101600020704731B500F064
:10021000E7F8044600F0E4F80099001B8842F9D39F
:1002200038BD00002DE9F84FDFF87CB100224FF017
:1002300001084FF0030A4FF00F090BF1040E00BF45
:100240000B6808FA02F42340A3426ED14D68022DD8
:1002500001D0122D0ED1D50800EB850CDCF8205012
:100260005607F70E09FA07F6B5430E69BE402E434E
:10027000CCF82060066855000F790AFA05FC07F0F3
:10028000030726EA0C06AF40374307604E68012E8D
:1002900005D0022E03D0112E01D0122E0ED1866869
:1002A000CF6826EA0C06AF40374387604668A6430E
:1002B0000C79C4F30014944034434460C6688C68DD
:1002C00026EA0C06AC403443C4604C68E40065D5B3
:1002D000364C256845F480452560246822F00305E6
:1002E00004F480440094324C2E19D6F8084895073F
:1002F0002F0F09FA07F5AC432E4DA84201D1002576
:1003000024E02D4DA84201D101251FE02B4DA8422C
:1003100001D102251AE02A4DA84201D1032515E09A
:10032000284DA84202D1042510E037E0264DA8420E
:1003300001D105250AE0254DA84201D1062505E099
:10034000234DA84201D1072500E00825BD402543E3
:10035000C6F80858DBF800405D464E689C43F6033B
:1003600000D51C432C60DEF8004075464E689C4367
:10037000B60300D51C432C600B4D08352C684E6825
:100380009C43F60200D51C432C60074D0C352C68AD
:100390004E689C43B60200D51C432C60521C102AA8
:1003A000FFF44EAFBDE8F88F003C014044380240F6
:1003B00000300140000002400004024000080240FA
:1003C000000C0240001002400014024000180240DD
:1003D000001C02400AB1816170470904FBE700007C
:1003E00001480068704700000000002002480168D2
:1003F000491C016070470000000000200B4810B548
:10040000016841F400710160016841F4806101609C
:10041000016841F480710160032000F075F800204C
:1004200000F006F800F018F8002010BD003C024073
:1004300010B5044607484FF47A710068B0FBF1F03C
:1004400000F0B7FC00222146501E00F03DF80020CD
:1004500010BD00000400002010B5032000F054F887
:10046000002211466FF00B0000F02EF8002211461A
:100470006FF00A0000F028F8002211466FF0090022
:1004800000F022F800221146501F00F01DF8002253
:100490001146101F00F018F800221146901E00F0BF
:1004A00013F80022BDE810401146501E00F00CB8B1
:1004B00000F01F02012191404009800000F1E0207E
:1004C000C0F8001170470000F0B40E4B1B680C46DA
:1004D000C3F30223C3F10705042D00D90425191D18
:1004E000072901D2002300E0DB1E012606FA05F1F0
:1004F000491E214099409E40761E16403143F0BC73
:1005000000F0E6BD0CED00E0064900F007020868C7
:100510004FF6FF03184040EA0220034A10430860E8
:10052000704700000CED00E00000FA052DE9F047EF
:10053000DFF8649105460F46D9F8000000F00F017E
:10054000F8B28046B94208D2014689F80010D9F8BD
:10055000000000F00F00B84274D128784F4C80079B
:1005600005D52068A96820F0F000084320602878AD
:10057000C00759D049496868083901281AD00228AB
:100580001BD0032819D00968890700295ADA216885
:1005900021F0030101432160FFF722FF696806464D
:1005A00041F28830012911D002291DD00329824649
:1005B00027D035E009688903E7E709688901E4E79E
:1005C000FFF70EFF811B514501D926E082462068C6
:1005D000C0F381000128F3D126E000BFFFF700FF40
:1005E000811B514501D918E082462068C0F3810083
:1005F0000228F3D118E000BFFFF7F2FE811B51453E
:100600000BD82068C0F381000328F5D10CE000BFAF
:10061000FFF7E6FE811B514502D90320BDE8F087B4
:10062000206810F00C0FF3D1D9F80010484601F003
:100630000F01B94208D980F80080006800F00F006F
:10064000B84201D00120E9E72878400705D52068A5
:10065000E96820F4E050084320602878000706D5B8
:100660002068296920F4604040EAC100206000F061
:1006700021F82168F02292FAA2F201F0F001B2FA18
:1006800082F2D140064A515CC84006490860002009
:10069000FFF7CEFE0020C1E7003C024008380240D0
:1006A0006013000804000020014800687047000043
:1006B0000400002030B51948006810F00C011848FB
:1006C00012D0184C04290ED008290DD11349091F46
:1006D0000A6802F03F030A68550247F6C07204D563
:1006E000B4FBF3F003E0204630BDB0FBF3F00B6841
:1006F0000968134092FAA2F2B2FA82F2D340584348
:100700004FF4403292FAA2F201F44031B2FA82F28E
:10071000D140491C4900B0FBF1F030BD083802401F
:100720000024F40040787D012DE9F84F0446DFF8FD
:10073000CC820078A8F1040BC007ABF1040537D0D8
:10074000D8F800104046C1F38101012908D00068A3
:10075000C0F3810002280AD1DBF80000400206D570
:100760002868800324D56068002878D020E0A34959
:100770002079891F0870606868B1FFF731FE06466E
:1007800005E000BFFFF72CFE801B642868D82868AE
:100790008003F7D50CE0FFF723FE064605E000BF17
:1007A000FFF71EFE801B6428F0D828688003F7D46A
:1007B0002078934E80074FF0010A4FF0000742D592
:1007C000D8F80010404611F00C0F08D00068C0F3B4
:1007D000810002280AD1DBF80000400206D4286814
:1007E000800714D5E068012839D110E0E068D8B15D
:1007F000C6F800A0FFF7F4FD814605E0FFF7F0FD25
:10080000A0EB09000228C1D828688007F6D528681F
:10081000F82292FAA2F22169B2FA82F220F0F800EC
:100820009140084328600EE03760FFF7D9FD81460C
:1008300006E000BFFFF7D4FDA0EB090002280FD8A7
:1008400028688007F6D42078000728D56D486169AC
:10085000A1B1C0F800A0FFF7C3FD814608E0CAE0DF
:1008600079E000BFFFF7BCFDA0EB0900022872D8B9
:1008700062486C3000688007F4D510E00760FFF72D
:10088000AFFD814606E000BFFFF7AAFDA0EB09001F
:10089000022860D859486C3000688007F4D420786A
:1008A000400749D555483830016841F08051016012
:1008B000006800F0805000905348016841F4807156
:1008C0000160FFF78DFD814606E000BFFFF788FD60
:1008D000A0EB090002283ED84B480068C005F5D5BA
:1008E000DFF81891207A09F1680989F80000A068FA
:1008F00088B1FFF775FD009008E000BFFFF770FDBD
:100900000099411A41F2883081426CD8D9F8000030
:100910008007F3D510E0FFF763FD009008E000BF0B
:10092000FFF75EFD0099411A41F2883081425AD8A2
:10093000D9F800008007F3D4A069E0B3D8F800101C
:10094000C1F38101022956D00228376604D0FFF78F
:1009500047FD04464AE046E0FFF742FD074604E053
:10096000FFF73EFDC01B02283DD828688001F7D460
:10097000D4E90701084347F6C07292FAA2F2616A0D
:10098000B2FA82F29140A26A4FF0FF3303EB5202B7
:100990004FF4403393FAA3F3B3FA83F39A4011432D
:1009A00008434FF0706292FAA2F2E16AB2FA82F260
:1009B0009140084300E01CE0CBF80000C6F860A0BE
:1009C000FFF70EFD044604E0FFF70AFD001B0228B6
:1009D00009D828688001F7D50BE000BFFFF700FDBC
:1009E000001B022802D90320BDE8F88F2868800187
:1009F000F4D40020F8E70120F6E7000008380240B0
:100A000000004742800E47420070004070470000DF
:100A100038B504460068426881684B0605D4CB07A8
:100A200003D0530601D5216C04E08B0707D51306CC
:100A300005D5616C01B02046BDE83040084711F48F
:100A4000B07F48D0930646D54B060AD594F851306E
:100A5000032B3DD0636D43F004036365C368836873
:100A600000938B0609D5636D43F0010363658368CA
:100A70000093036823F040030360C80506D5606D4A
:100A800040F008006065206880680090606D002874
:100A900021D02068416821F0E0014160012084F804
:100AA0005100900718D02068416821F0030141608F
:100AB0000B4DE06C18B10565E06CFFF795FBA06C81
:100AC000002808D00565A06CBDE83840FFF78CBB56
:100AD000C1688068009038BD2046FFF797FF38BD99
:100AE0002111000870B5040005D00025A56294F816
:100AF000510010B106E0012070BD84F8505020462E
:100B000000F030F8022084F851002068016821F0DC
:100B100040010160D4E901010843D4E90312114303
:100B2000084361690843218B01F400710843E169BE
:100B30000843216A0843A16A084321680860A06944
:100B4000042101EA1040616A084321684860206876
:100B5000C16921F40061C1616565012084F851001B
:100B6000002070BD00B50068124987B088421ED1D0
:100B700011480021026842F480520260006800F4CB
:100B800080500590E02000900220CDE90101032073
:100B900003900520049069460848FFF743FB0022B4
:100BA00011462320FFF790FC2320FFF781FC07B0BC
:100BB00000BD000000300140443802400000024007
:100BC0002DE9F84F044690F8500000260A9F9A46F7
:100BD00093460D464FF0010801280ED0012084F8FD
:100BE0005000FFF7FDFB814694F851006168012831
:100BF0000CD0B1F5827F07D102E00220BDE8F88F6A
:100C0000A16809B9042801D00226BDE055B1BBF1A5
:100C1000000F07D0BAF1000F04D094F8510001285A
:100C200002D004E00126AFE0052084F85100002046
:100C30006065C4F838B0A4F83EA0A4F83CA02563D1
:100C4000A4F836A0A4F834A0206460642068016889
:100C5000490603D4016841F040010160E068B0F545
:100C6000006F606804D0E8B3E08E01283BD06AE0F2
:100C700010B1E08E01282ED1216835F8020BC86032
:100C8000E08E401EE08626E0B8F1000F0DD0E08E29
:100C900058B120688168890707D535F8021BC16003
:100CA000E08E401EE0864FF00008E08F58B12068CB
:100CB0008168C90707D0C0682BF8020BE08F401E7F
:100CC000E0874FF00108781C05D0FFF789FBA0EB07
:100CD0000900B84246D2E08E0028D5D1E08F002826
:100CE000D2D136E0FFE7216815F8010B0873E08EDA
:100CF000401EE08627E000BFB8F1000F0DD0E08E67
:100D000058B120688168890707D515F8011B017360
:100D1000E08E401EE0864FF00008E08F58B120685A
:100D20008168C90707D0C0680BF8010BE08F401E2F
:100D3000E0874FF00108781C05D0FFF751FBA0EBCE
:100D40000900B8420ED2E08E0028D5D1E08F0028ED
:100D5000D2D13B46012202212046CDF8009000F07E
:100D6000E7F908B103260FE04A463946204600F06D
:100D7000C7F918B101262020606505E0A06818B900
:100D80002068C16880680090012084F8510000202C
:100D900084F85000304631E74FF0E021042808691C
:100DA00003D020F004000861704740F00400FAE727
:100DB000704710B5401EB0F1807F01D3012010BDF7
:100DC0004FF0E02460610F21601700F081F90020EE
:100DD000A06107202061002010BD10B5FFF7E8FFDB
:100DE00010BDFEE710B500F061F8134C208000F054
:100DF00060F8608000F060F8A080B4F9000000287E
:100E000000DA404280B200F0B9F884ED020AB4F989
:100E10000200002800DA404280B200F0AFF884ED12
:100E2000030AB4F90400002800DA404280B200F05E
:100E3000A5F884ED040A10BD0800002002480068EF
:100E4000002800D0004770471C00002010B5242067
:100E50002DED028B9FED108A00F066F800F038004F
:100E600010280CD003DC90B1082810D104E0182819
:100E700008D020280BD108E09FED088A07E09FEDFD
:100E8000088A04E09FED078A01E09FED078AB0EE33
:100E9000480ABDEC028B10BD8FC2753D8FC2F53D77
:100EA000EC51383E8FC2753E48E13A3F282000F0B1
:100EB0001DB82A2000F01AB82C2000F017B810B581
:100EC0004FF47A70FFF7A2F900F048F800280CD030
:100ED0006721202000F06AF80021242000F066F845
:100EE0001021252000F062F8012010BD70B50D4DD5
:100EF00040F08004002208212846FFF76BFA2046C4
:100F000000F062F9002000F05FF90446002000F0D4
:100F10005BF944EA0024012208212846FFF75AFA27
:100F2000204670BD0010024070B50B4D40F08004AB
:100F3000002208212846FFF74DFA204600F044F928
:100F4000002000F041F90446012208212846FFF75D
:100F500041FA204670BD00000010024010B50F207D
:100F6000FFF7E2FFFF2802D03F2804D001E0FFF79F
:100F700065FF002010BD012010BD000010B5044623
:100F8000FFF764FF00EE904AF8EE600A20EE800A58
:100F9000DFED020A20EE200A10BD00000AD7233C34
:100FA00001490860704700001C00002070B50A4C21
:100FB0000E460546002208212046FFF70BFA284678
:100FC00000F002F9304600F0FFF82046BDE870401E
:100FD00001220821FFF7FEB9001002402DE9F0417F
:100FE000274886B00024016841F0100101600168C3
:100FF00001F010010591016841F080010160016874
:1010000001F080010591016841F001010160016872
:1010100001F001010591016841F0080101600068DB
:10102000DFF8608000F008000590002208214046AB
:10103000FFF7D0F9144F4FF470460022314638467E
:10104000FFF7C8F901250820CDE9000569464046AB
:10105000CDE90245FFF7E6F80096CDE9015469466F
:1010600038460394FFF7DEF80320CDE90004694613
:1010700040460294FFF7D6F806B0BDE8F0810000C4
:101080003038024000100240000C02400E4810B5FB
:101090000C4901604FF48271416000218160C160A0
:1010A0004FF400720161C0E905121822C0E907215E
:1010B000416281620A21C162FFF714FD002800D05D
:1010C000FEE710BD0030014020000020FEE7704721
:1010D0000907090E002806DA00F00F0000F1E020F1
:1010E00080F8141D704700F1E02080F8001470476C
:1010F000704700000148FFF78BBC00002000002073
:1011000038B50B46009204460022802100F010F80A
:10111000002804D0606D40F020006065032038BDD9
:1011200010B5806B0021C187C186FFF76FFC10BD31
:101130002DE9F0411D4617460E460446DDF818809D
:1011400035E0681C33D02DB1FFF74AF9A0EB080059
:10115000A8422CD32068416821F0E001416060681A
:10116000B0F5827F0BD1A068B0F5004F02D0B0F58A
:10117000806F04D12068016821F040010160A06AFD
:10118000B0F5005F0AD1206801684DF6FF7211408A
:1011900001602068016841F400510160012084F879
:1011A0005100002084F850000320BDE8F081206841
:1011B000806836EA000004D00020B842C1D1002087
:1011C000F3E70120F9E7000001B582B000208DF8B7
:1011D00004004FF480500090012301AA02A90448A2
:1011E000FFF7EEFC08B1FFF729FE9DF804000EBDE5
:1011F0002000002070470000012291030148FFF702
:10120000E9B80000000C024010B5FFF7EFF8BDE8A8
:101210001040FFF7E2BD000010B51F4892B0002457
:10122000016841F080510160006800F08050119029
:101230001A48016841F4804101600068069400F496
:101240008040119002200090012003901020049013
:101250006846FFF769FA00B1FEE70F20CDE90C04FC
:101260000E940F9400210CA81094FFF75FF900B1C1
:10127000FEE7FFF719FA4FF47A71B0FBF1F0FFF7D0
:1012800098FD0420FFF788FD00221146501EFFF74D
:101290001BF912B010BD0000403802400070004041
:1012A0001048016841F4700101600F48016841F085
:1012B000010101600C4A00210832116002680B4BE9
:1012C0001A400260031D0A4A1A60026822F4802252
:1012D000026005480C3001600249580680390860F8
:1012E0007047000088ED00E000380240FFFFF6FE86
:1012F00010300024FEE702E008C8121F08C1002ACF
:10130000FAD170477047002001E001C1121F002A86
:10131000FBD17047FFF772F8FFF77EFFFFF75EFE25
:10132000FFF7B4FE0C48FFF73BFEFFF7C8FD0400D3
:101330004FF4FA6508D0012211030848FFF74AF874
:101340002846FEF763FF04E02846FEF75FFF002C07
:10135000FDD0FFF747FDFAE7F9110008000C024045
:10136000000000000102030401020304060708094B
:10137000901300080000002020000000F612000872
:10138000B013000820000020584000000613000899
:10139000000000000024F400000000000000000035
:1013A000000000000000000000000000000000003D
:040000050800018965
:00000001FF
